{
  "contractName": "DappToken",
  "abi": [
    {
      "constant": true,
      "inputs": [],
      "name": "totalSupply",
      "outputs": [
        {
          "name": "",
          "type": "uint256"
        }
      ],
      "payable": false,
      "stateMutability": "view",
      "type": "function"
    },
    {
      "inputs": [],
      "payable": false,
      "stateMutability": "nonpayable",
      "type": "constructor"
    }
  ],
  "bytecode": "0x608060405234801561001057600080fd5b50620f4240600081905550609e806100296000396000f300608060405260043610603f576000357c0100000000000000000000000000000000000000000000000000000000900463ffffffff16806318160ddd146044575b600080fd5b348015604f57600080fd5b506056606c565b6040518082815260200191505060405180910390f35b600054815600a165627a7a72305820144a4227a89c2a20f91df124bd23e6ca8d533ce722fb92c1b73eea4ad30b17340029",
  "source": "pragma solidity ^0.4.2;\n\ncontract DappToken {\n\t// Constructor\n\t// Set the total number of tokens\n\t// Read the total number of tokens \n\t\n\tuint256 public totalSupply; \n\t/* whenever we declare a variable \n\tunsigned integer, we will see that the visibility to public and we \n\tgave the same name as our contract name */\n\n\t/* whenever we define the state variable as 'public' we get the getter \n\tfunction for free */\n\n\tfunction DappToken () public {\n\t\ttotalSupply = 1000000; //this variable will be our state variable \n\t}\n}",
  "sourcePath": "/Users/mertcanyucel/Ultimate-Workspace/Blockchain/Dapp-University/token_sale/contracts/DappToken.sol",
  "compiler": {
    "name": "solc",
    "version": "0.4.24+commit.e67f0147.Emscripten.clang"
  },
  "schemaVersion": "2.0.1",
  "updatedAt": "2018-09-16T15:49:15.872Z"
}